:020000040800F2
:10000000C85F00205D020008B1450008B136000855
:10001000D53D0008C10A0008D952000800000000C0
:100020000000000000000000000000009D0100082A
:100030008D0E000800000000F90100089149000839
:1000400077020008770200087702000877020008AC
:10005000770200087702000877020008770200089C
:10006000770200087702000877020008770200088C
:10007000770200087702000877020008770200087C
:10008000770200087702000877020008650B000875
:10009000350B0008450B0008550B00088F0E0008B3
:1000A000770200087702000877020008770200084C
:1000B0006D4A0008770200087702000877020008FE
:1000C000770200087702000877020008770200082C
:1000D00077020008295100083951000855510008DD
:1000E000770200087702000877020008770200080C
:1000F00077020008770200087702000877020008FC
:1001000077020008770200087702000877020008EB
:10011000DD4B00087702000877020008770200082C
:1001200077020008770200087702000877020008CB
:10013000770200087702000877020008190C00080F
:10014000E90B0008F90B0008090C00087702000809
:10015000770200087702000877020008770200089B
:10016000770200087702000877020008770200088B
:1001700077020008770200087702000800000000FC
:100180007702000877020008DFF80CD000F0F8FBD7
:1001900000480047F1660008C85F00202C4B196832
:1001A0000868B0E8F04F80F30988BFF36F8F4FF015
:1001B000000080F3118870470000000008480068C4
:1001C000006880F308884FF0000080F3148862B65E
:1001D00061B6BFF34F8FBFF36F8F00DF00BF00BF6B
:1001E00008ED00E0DFF80C00016841F470010160E7
:1001F000704700BF88ED00E0EFF30980BFF36F8F19
:10020000134B1A681EF0100F08BF20ED108A20E96A
:10021000F04F106009B44FF0500080F31188BFF325
:100220004F8FBFF36F8F07F0F1FE4FF0000080F3A8
:10023000118809BC19680868B0E8F04F1EF0100F6B
:1002400008BFB0EC108A80F30988BFF36F8F704746
:10025000B8010020EFF30580704700000648804792
:1002600006480047FEE7FEE7FEE7FEE7FEE7FEE79B
:10027000FEE7FEE7FEE7FEE7594A000889010008AD
:100280002DE9F05F0546002092469B4688460646CB
:10029000814640241BE0284641464746224600F05E
:1002A00050FA53465A46C01A914110D31146184687
:1002B000224600F037FA2D1A67EB01084F46224616
:1002C0000120002100F02EFA17EB00094E41201EFC
:1002D000A4F10104DFDC484631462A464346BDE826
:1002E000F09F40EA01039B0703D009E008C9121FF1
:1002F00008C0042AFAD203E011F8013B00F8013BE0
:10030000521EF9D27047D2B201E000F8012B491E0B
:10031000FBD270470022F6E710B513460A460446A2
:100320001946FFF7F0FF204610BD2DE9FE4F80462D
:1003300081EA0300C00F0C46009021F0004123F039
:100340000045B8EB0200A94105D24046214690463F
:100350001C460B46024623F00040104347D0270DB1
:10036000C7F30A00C3F30A510290401A01904028D3
:100370006BDAC3F3130040F4801B0098924620B15F
:100380000023D2EB030A63EB0B0B01985946C0F133
:100390004002504600F0C6F906460D465046594602
:1003A000019A00F0DEF910EB08006141002487EAB1
:1003B000115284EAE7731A4340D0009A62B3019A5B
:1003C000012A4FEA075215DC001B61EB02014FF0D6
:1003D000004202EA0752CDE90042001C41F58011BB
:1003E00032462B4600F015FA03B0BDE8F08F4046C8
:1003F0002146F9E7001B61EB0201001C41F5801367
:1004000000185B412018A2F5001747EB030140EAF2
:10041000D570B6196D4111E06D084FEA360645EA10
:10042000C0754FEA0752001B61EB0201001C41F549
:10043000801149084FEA30000019514132462B46DD
:1004400003B0BDE8F04F00F0D5B90098012240009C
:100450000023D0EB020263EBE073009821464FEAE1
:10046000E074B8EB000061EB0401E9E783F00043BE
:100470005BE781F0004158E72DE9FE4F81EA030474
:1004800004F0004421F0004100944FF0000B23F0F1
:10049000004350EA01045ED052EA03045BD0C3F388
:1004A0000A54C1F30A552C44A4F2F3340194A0FB7E
:1004B0000254C1F3130141F48011C3F3130343F455
:1004C000801301FB024400FB034E840A970A44EAAE
:1004D000815447EA8357A4FB076802958D0A05FB00
:1004E00007854FEA932C04FB0C542705029D4FEA25
:1004F000065847EA1637B5EB08056EEB070C870E72
:10050000920E47EA811742EA8312A7FB0201B6EB7B
:100510000B0164EB00042B0D43EA0C335E1844EB33
:100520001C50DA465146E7FB0201C5F313044FEABB
:100530000B3343EA14534FEA0432019C43EA0603A7
:10054000A4F10C040294009CCDE900B400F061F920
:1005500003B0BDE8F08F00200146F9E72DE9F04D2A
:1005600081EA030404F0004B21F0004514464FF0EB
:10057000000A23F0004150EA050220D054EA0102AB
:100580001DD0C5F30A570246C5F31303C1F3130088
:10059000C1F30A5640F4801543F48013A7EB060814
:1005A000101BD64608F2FD3873EB050002D308F1A4
:1005B000010801E092185B41B8F1000F03DA002056
:1005C0000146BDE8F08D00204FF4801106468446B8
:1005D0000EE0171B73EB050705D3121B63EB050336
:1005E00006434CEA010C49084FEA300092185B417F
:1005F00050EA0107EDD152EA030012D082EA04006A
:1006000083EA0501084305D0101BAB4106D2012245
:10061000002306E000224FF0004302E06FF00102E9
:1006200053101AEB06004CEB085110EB0A0041EB9B
:100630000B01BDE8F04D00F0DDB800F0004230F0F5
:1006400000400AD0C10D01F56071C0F3160042EA06
:100650000151C2084007114370470020014670470E
:1006600030B5041E71F1000404DB4FF00044404239
:1006700064EB0101141E73F1000405DB1C464FF00E
:100680000043524263EB04038B4208BF824230BDF9
:1006900030B5041E71F1000404DB4FF00044404209
:1006A00064EB0101141E73F1000405DB1C464FF0DE
:1006B0000043524263EB0403994208BF904230BDAD
:1006C00001F0004330B421F0004150EA010206D0AD
:1006D0000A0DA2F56072C1F31301002A02DC30BCDE
:1006E00000207047440F44EAC104C100E01830BC48
:1006F00000EBC25000F047B830B50B460146002071
:100700002022012409E021FA02F59D4205D303FAD3
:1007100002F5491B04FA02F52844151EA2F1010254
:10072000F1DC30BD202A04DB203A00FA02F100207F
:1007300070479140C2F1200320FA03F3194390401F
:100740007047202A04DB203A21FA02F0002170478A
:1007500021FA02F3D040C2F1200291400843194629
:100760007047202A06DBCB17203A41FA02F043EA11
:10077000E07306E041FA02F3D040C2F1200291405A
:100780000843194670470029A8BF7047401C49001C
:1007900008BF20F00100704710B4B0FA80FC00FAE6
:1007A0000CF050EA010404BF10BC704749B1CCF111
:1007B000200421FA04F411FA0CF118BF012121439D
:1007C0000843A3EB0C01CB1D4FEA00614FEA102058
:1007D00042BF002010BC704700EBC35010440029FA
:1007E000A4BF10BC7047401C490008BF20F00100A6
:1007F00010BC704710B5141E73F1000408DA401CD9
:1008000041F1000192185B411A4301D120F001002F
:1008100010BD2DE9F04D92469B4611B1B1FA81F21F
:1008200002E0B0FA80F220329046FFF77BFF0446E8
:100830000F4640EA0A0041EA0B0153465A46084374
:1008400013D0114653EA010019D0C8F140025046B6
:10085000FFF777FF05460E46504659464246FFF7DA
:1008600061FF084305D0012004E020463946BDE879
:10087000F08D0020054346EAE0762C4337430A9882
:100880006305E40AA0EB08000022FD0A44EA47548D
:100890000A3002D500200146E9E701051019694137
:1008A000DDE9084500196941BDE8F04DA2E72DE9F1
:1008B000F04D00231A461B1A8A4103DB0020014633
:1008C000BDE8F08DC1F30A52C1F3130141F4801564
:1008D0004FF0000BD10702D100186D41521E0027C6
:1008E000044640F2FF11384601EB620A3E4680465C
:1008F000024600204FF48011FFF723FFC219714117
:10090000BB1846EB0100B4EB030C75EB000C04D3F1
:10091000E41A65EB000517460E46241908F101009C
:100920006D4180463428E3DDF91946EB0600091BCA
:10093000A84103D24FF0FF32134601E000221346D4
:100940001BEB070046EB0A51BDE8F04DFFF752BF25
:10095000C1F30A52C1F3130140F2FF3341F4801195
:100960009A4202DA00200146704740F233439A422D
:10097000A2F2334202DC5242FFF7E3BEFFF7D2BEDF
:10098000064C074D06E0E06840F0010394E80700DC
:1009900098471034AC42F6D3FFF7FAFBF48E000808
:1009A000148F000870B58C1810F8015B15F0070360
:1009B00001D110F8013B2A1106D110F8012B03E0F8
:1009C00010F8016B01F8016B5B1EF9D12B0705D400
:1009D0000023521E0DD401F8013BFAE710F8013B49
:1009E000CB1A921C03E013F8015B01F8015B521E65
:1009F000F9D5A142D8D3002070BD000010B504463F
:100A000000224FF48041104801F040FB9FED0F0A97
:100A10000F4804F0CDFC9FED0F0A0D48483004F05C
:100A2000C7FC4FF47A7001F0BDF89FED0B0A08483F
:100A300004F0BEFC9FED080A0548483004F0B8FCFD
:100A400000200649086010BD000402400000484232
:100A5000E0080020000048C200000000EC00002078
:100A600010B50D480068062802D101200B49087016
:100A70000B48007808B903F0F1FE0948007850B936
:100A80000848807838B10548007820B103F0E6FEC8
:100A900001200349087010BDEC00002085010020F2
:100AA0005C0100205101002010B5012202490348D9
:100AB00002F0E8FC10BD00007000002008080020D3
:100AC00000BFFEE700B58BB0002006900790012024
:100AD00008900020019004200290002003900490D0
:100AE00005900120099000200A9001A90F4800F00C
:100AF00053FB08B100F022FA0C4800F0B2FF08B135
:100B000000F01CFA0221094800F08CFA08B100F04C
:100B100015FA002006494860042088600020C8605B
:100B200008200861002008750BB000BD28070020D0
:100B30001007002010B5024800F08BFC10BD00002B
:100B40002807002010B5024800F083FC10BD00000B
:100B50002807002010B5024800F07BFC10BD000003
:100B60002807002010B5024800F073FC10BD0000FB
:100B70002807002000B58BB00F20069000200790BA
:100B80000120089000200190042002900020039092
:100B900004900590012009900E200A9001A91048A8
:100BA00000F0FAFA08B100F0C9F90D4800F059FF59
:100BB00008B100F0C3F90221094800F033FA08B186
:100BC00000F0BCF90020074948600420886000203C
:100BD000C86008200861002008750BB000BD000047
:100BE000500700201007002010B5024800F031FC2B
:100BF00010BD00005007002010B5024800F029FC8D
:100C000010BD00005007002010B5024800F021FC84
:100C100010BD00005007002010B5024800F019FC7C
:100C200010BD00005007002010B50121084600F05B
:100C300013F80A2000F0B6FF0121022000F00CF8A2
:100C40000A2000F0AFFF0121032000F005F80A2080
:100C500000F0A8FF10BD000030B589B005460C4675
:100C60000020059006900820079000200090019039
:100C700005F580700390FF208DF800008DF80100CD
:100C80008DF802008DF803008DF804008DF8050042
:100C90008DF80600012C04D0022C06D0032C0CD1B8
:100CA00007E0FC208DF8070009E0FD208DF8070023
:100CB00005E0FE208DF8070001E009B030BD00BF5F
:100CC00002AB6A4603A9024800F0C1F900BFF4E78D
:100CD00050070020F0B507460B461878012806D0CB
:100CE000022835D0032864D004287DD194E0987878
:100CF000597840EA0124D8780001197940EA211591
:100D00005879197901F00F0140EA01261021F2EE1D
:100D1000090ABAEE090A204606F0F6FE584880EDA8
:100D2000000A0C21DFED570A9FED570A284606F00E
:100D3000EBFE534880ED010A0C21F3EE020ABBEEF4
:100D4000020A304606F0E0FE4D4880ED020A95E0CA
:100D50009878597840EA0124D8780001197940EA56
:100D600021155879197901F00F0140EA0126102167
:100D7000F2EE090ABAEE090A204606F0C5FE40481E
:100D800080ED080A0C21DFED3F0A9FED3F0A28465F
:100D900006F0BAFE3A4880ED090A0C21F3EE020A89
:100DA000BBEE020A304606F0AFFE354880ED0A0A77
:100DB00064E09878597840EA0124D87800011979DC
:100DC00040EA21155879197901F00F0140EA01260E
:100DD0001021F2EE090ABAEE090A204606F094FE46
:100DE000274880ED100A00E047E00C21DFED250ADE
:100DF0009FED250A284606F087FE214880ED110A5E
:100E00000C21F3EE020ABBEE020A304606F07CFE2D
:100E10001B4880ED120A31E09878597840EA0124A5
:100E2000D8780001197940EA21155879197901F02B
:100E30000F0140EA01261021F2EE090ABAEE090A72
:100E4000204606F061FE0E4880ED180A0C21DFED09
:100E50000D0A9FED0D0A284606F056FE084880ED63
:100E6000190A0C21F3EE020ABBEE020A304606F024
:100E70004BFE034880ED1A0A00E000BF00BFF0BD42
:100E8000741200200000FA430000FAC3704710B546
:100E9000402000F0EBFF10BD10B5012200212520FD
:100EA00001F08EF9252001F077F91F480068C0682D
:100EB00040F060001C490968C8600122002126201A
:100EC00001F07EF9262001F067F918480068C06833
:100ED00040F0600015490968C860022200212720FF
:100EE00001F06EF9272001F057F911480068C06839
:100EF00040F060000E490968C86001220D490C48A5
:100F000002F0C0FA01220021342001F059F9342006
:100F100001F042F908480068C06840F060000649E6
:100F20000968C86010BD00000808002050080020B3
:100F3000980800200C000020C007002072B600BFF7
:100F4000FEE7000030B50021002300249FED321A97
:100F5000B0EE410A00200EE0304D2D5C3D2D01D158
:100F6000451CE9B22D4D2D5C212D02D1451EEBB261
:100F700003E0451CE8B2C828EEDB00BF2748405C10
:100F80002D2802D1481CC1B201240022084607E0E6
:100F9000224D2D5C2E2D01D1024603E0451CE8B206
:100FA0009842F5DD00BF084611E01C4D2D5C01EEB6
:100FB000105AB8EE411AF2EE041A00EE211ADFEDD3
:100FC000181A31EE611AB0EE410A451CE8B290429F
:100FD000EBDBF2EE040A551CE8B214E00F4D2D5C79
:100FE000303D01EE105AF8EEC11A81EEA01A31EE32
:100FF000001AB0EE410AB2EE041A20EE811AF0EEA9
:10100000410A451CE8B29842E8DD012C03D1B1EE5B
:10101000401AB0EE410A30BD00000000E010002090
:101020000000404210B5024692F82030012B01D05A
:10103000022B06D1106840690843146860610020E3
:1010400010BD506A40F4802050620120F8E7F0B5EE
:1010500004460D461E4694F8207020688368A868F0
:1010600000B900E000BF012F01D0022F7DD103F0B5
:10107000806030B903F0006018B903F08050002898
:101080007ED0C3F30161012088403060A86860B958
:10109000B5F800C0E86840EA4C5C206800F5C07014
:1010A00000EB0110C0F800C00FE0D5E901C040EA34
:1010B000CC00D5F80CC040EA0C00D4F800C00CF508
:1010C000C07C0CEB011CCCF80000D5F810C02068E7
:1010D00000F5C07000EB0110C0F804C0287D0128A5
:1010E0000ED1206800F5C07000EB0110406840F49C
:1010F000807C206800F5C07000EB0110C0F804C0CF
:10110000D079000692F806C040EA0C4092F805C07B
:1011100040EA0C2092F804C040EA0C00D4F800C069
:101120000CF5C07C0CEB011CCCF80C00D078000650
:1011300092F802C040EA0C4092F801C040EA0C204C
:1011400092F800C040EA0C00D4F800C00CF5C07C56
:101150000CEB011CCCF80800206800F5C07000EB17
:101160000110006840F0010C01E00FE008E0206889
:1011700000F5C07000EB0110C0F800C00020F0BD09
:10118000606A40F4001060620120F8E7606A40F491
:10119000802060620120F2E7F0B504460A4621682B
:1011A00094F82050012D01D0022D7ED1424901F545
:1011B0000071086840F001000860086820F47C5065
:1011C00008600868566A40EA06200860107D00F052
:1011D0001F06012000FA06F3C8699843C861A1F50B
:1011E0000071D069C8B9D1F80C029843C1F80C025B
:1011F000908880B2968940EA064601F510705769DA
:1012000040F83760108880B2168940EA064601F53A
:101210001070576900EBC7004660D069012819D1EA
:10122000D1F80C021843C1F80C02908880B21688DD
:1012300040EA064601F51070576940F8376090891A
:1012400080B2168940EA064601F51070576900EB36
:10125000C7004660906928B9D1F804029843C1F8E4
:10126000040204E0D1F804021843C1F80402106932
:1012700028B9D1F814029843C1F8140204E0D1F857
:1012800014021843C1F81402106A012804D1D1F8DD
:101290001C021843C1F81C02D1F8000220F0010022
:1012A000C1F800020020F0BDFFE7606A40F4802032
:1012B00060620120F7E7000000640040704770B5ED
:1012C000044694F82050012D01D0022D7DD151B952
:1012D0002068C06800F0030080B9606A40F4001024
:1012E0006062012070BD2068006900F0030028B929
:1012F000606A40F4001060620120F3E7206800F5A6
:10130000D87000EB0110006800F004009060906855
:1013100040B9206800F5D87000EB01100068400D5E
:10132000106007E0206800F5D87000EB011000683D
:10133000C0085060206800F5D87000EB011000680C
:1013400000F00200D060206800F5D87000EB0110BA
:10135000406800F00F00082802D30820106108E060
:10136000206800F5D87000EB0110406800F00F0015
:101370001061206800F5D87000EB0110406800F49F
:101380007F40000A9061206800F5D87000EB0110E2
:101390004068000C5061206800F5D87000EB011027
:1013A00080681870206800F5D87000EB0110806824
:1013B00000F47F40000A5870206800F5D87000EBF8
:1013C0000110806800F47F0000E03CE0000C9870A1
:1013D000206800F5D87000EB01108068000ED8700E
:1013E000206800F5D87000EB0110C0681871206803
:1013F00000F5D87000EB0110C06800F47F40000ACF
:101400005871206800F5D87000EB0110C06800F436
:101410007F00000C9871206800F5D87000EB011077
:10142000C068000ED87131B92068C06840F0200053
:101430002668F06005E02068006940F0200026681A
:10144000306100204EE7606A40F480206062012035
:1014500048E72DE9F05F04460025206846692068CA
:10146000D0F80490206887682068D0F80CA0206825
:10147000D0F810B02068D0F8188006F001000028DD
:1014800055D007F00100C0B101202168886007F045
:10149000020018B1204600F014FB0EE007F0040033
:1014A00010B145F4006508E007F0080010B145F4FC
:1014B000805502E0204600F003FB07F48070C8B1BD
:1014C0004FF480702168886007F4007018B12046DE
:1014D00000F0F9FA0EE007F4806010B145F4005511
:1014E00008E007F4006010B145F4804502E02046B2
:1014F00000F0E8FA07F48030C8B14FF4803021687A
:10150000886007F4003018B1204600F0DEFA0EE0E3
:1015100007F4802010B145F4004508E007F40020EE
:1015200010B145F4803502E0204600F0CDFA06F017
:10153000080038B10AF0100020B145F40075102001
:101540002168C86006F0040040B10AF0080028B124
:1015500008202168C860204600F03EFA06F002002C
:1015600038B12068C06800F0030010B1204600F0D8
:1015700035FA06F0400038B10BF0100020B145F408
:10158000806510202168086106F0200040B10BF052
:10159000080028B1082021680861204600F05EFAA2
:1015A00006F0100038B12068006900F0030010B1A7
:1015B000204600F054FA06F4003040B109F0100063
:1015C00028B1102021684860204600F049FA06F44E
:1015D000803040B109F0080028B108202168486037
:1015E000204600F073FA06F4004088B309F00400C6
:1015F00078B306F4807020B108F0010008B145F01E
:10160000010506F4007020B108F0020008B145F0B1
:10161000020506F4806020B108F0040008B145F02E
:10162000040506F40060A0B108F0700088B108F06D
:101630007000402817D006DC10280BD020280CD0D2
:10164000302819D10CE0502810D0602814D110E0B7
:101650001DE019E045F008050FE045F010050CE02D
:1016600045F0200509E045F0400506E045F080051D
:1016700003E045F4807500E000BF00BF206880698A
:1016800020F07000216888610420216848602DB135
:10169000606A284360622046FFF710FEBDE8F09FB5
:1016A00070B504460CB9012070BD94F8200010B943
:1016B000204600F0AFF82068006840F00100216883
:1016C000086000F0E9FC05460DE000F0E5FC401B79
:1016D0000A2808D9606A40F400306062052084F866
:1016E00020000120E0E72068406800F001000028A9
:1016F000EBD02068006820F002002168086000F04C
:10170000CBFC05460DE000F0C7FC401B0A2808D9B9
:10171000606A40F400306062052084F820000120F7
:10172000C2E72068406800F002000028EBD1207E6C
:10173000012806D12068006840F080002168086018
:1017400005E02068006820F0800021680860607E65
:10175000012806D12068006840F040002168086038
:1017600005E02068006820F0400021680860A07E45
:10177000012806D12068006840F020002168086038
:1017800005E02068006820F0200021680860E07E05
:10179000012806D12068006820F010002168086048
:1017A00005E02068006840F0100021680860207F94
:1017B000012806D12068006840F008002168086010
:1017C00005E02068006820F0080021680860607F5C
:1017D000012806D12068006840F0040021680860F4
:1017E00005E02068006820F0040021680860D4E962
:1017F0000201084321690843616908436168491E81
:1018000008432168C86100206062012084F820003C
:10181000002049E710B586B00446142101A8FEF760
:1018200079FD6749206888425AD166480068401CA3
:10183000644908600846006801280FD100BF0020F5
:1018400000906148006840F000705F4908600846F9
:10185000006800F00070009000BF00BF00BF0020D3
:10186000009059481038006840F00100564910397E
:1018700008600846006800F00100009000BF00BF4B
:101880004FF4C050019002200290002003900320EA
:1018900004900920059001A94C4800F0F5FA0022B7
:1018A0000221132000F08CFC132000F075FC0022B4
:1018B0000221142000F084FC142000F06DFC0022B2
:1018C0000221152000F07CFC152000F065FC0022B0
:1018D0000221162000F074FC162000F05DFC6DE083
:1018E0003B492068884269D100BF002000903648FB
:1018F000006840F08060344908600846006800F0E5
:101900008060009000BF00BF2E480068401C2D4939
:1019100008600846006801280FD100BF0020009031
:101920002948006840F000702749086008460068B0
:1019300000F00070009000BF00BF00BF00200090CA
:1019400021481038006840F002001F491039086033
:101950000846006800F00200009000BF00BF4FF48E
:101960004050019002200290002003900320049038
:101970000920059001A9174800F086FA00220521E8
:101980003F2000F01DFC3F2000F006FC0022052156
:10199000402000F015FC402000F0FEFB0022052155
:1019A000412000F00DFC412000F0F6FB0022052153
:1019B000422000F005FC422000F0EEFB06B010BD16
:1019C000006400403C00002040380240000002401B
:1019D00000680040000402407047000030B587B046
:1019E00004461848844219D1012017490860174B52
:1019F0006A4600211348FFF762FC1449684604F068
:101A0000D9FD002507E005EBC501114A02EBC10035
:101A100001F024FF6D1C072DF5DB00BF0D4884424B
:101A20000DD10120084908600B4B6A460021094886
:101A3000FFF745FC08496846FFF74CF900BF07B0BF
:101A400030BD0000280700203800002028000020BA
:101A5000E008002050070020300000207047704749
:101A6000704770B5044694F82000012822D1022066
:101A700084F820002068006820F0010021680860D8
:101A800000F00AFB05460DE000F006FB401B0A28AB
:101A900008D9606A40F400306062052084F82000B4
:101AA000012070BD2068406800F001000028EBD1E3
:101AB0006062F6E7606A40F4002060620120F0E7AF
:101AC000704770477047704770477047704770B5F0
:101AD0000446A56D00F0E0FA064694F835000228A9
:101AE00008D08020606500BF002084F8340000BF6B
:101AF000012070BD2068006820F016002168086091
:101B00002068406920F0800021684861206C08B995
:101B1000A06C28B12068006820F0080021680860E7
:101B20002068006820F001002168086010E000F0E3
:101B3000B3FA801B05280BD920206065032084F8A8
:101B4000350000BF002084F8340000BF0320D0E738
:101B50002068006800F001000028E8D194F85C10CB
:101B60003F208840A860012084F8350000BF002095
:101B700084F8340000BF00BFBBE7014691F8350090
:101B8000022803D08020486501207047052081F895
:101B900035000868006820F001000A681060002025
:101BA000F3E7000070B5044600F076FA06462546D5
:101BB000681C10B104480078054400BF00F06CFABE
:101BC000801BA842FAD370BD4C00002040287DD174
:101BD0009D4909689D4A11600106496A9C4A12683C
:101BE00042F2107303FB0211974A1160994A116087
:101BF00095490988954A1288891A974A1180974908
:101C00000978012933D11146098840F634029142FE
:101C100009DB0121914A11700021914A11700121C3
:101C2000904A117031E08C49098809291BDB8A49E7
:101C3000098840F60202914215DC87490A888A49E0
:101C4000874B1B7821F8132085490978491C844A61
:101C50001170114609780A2917DB00217F4A11709B
:101C60007F4A117011E000217C4A11700DE07A4921
:101C7000098840F63402914207DB0121774A11704E
:101C80000021774A1170774A11707749C98840F26C
:101C9000B452914209DD7449C98840F2046291420C
:101CA00003DA40F2DC51704AD1806F49898840F2F2
:101CB000B452914209DD6C49898840F20462914234
:101CC00003DA40F2DC51684A918000E0BBE06649EB
:101CD000098840F2B452914209DD6349098840F213
:101CE0000462914203DA40F2DC515F4A11805E499E
:101CF000498840F2B452914209DD5B49098840F2BB
:101D00000462914203DA40F2DC51574A518056494D
:101D10000989B1F5617F09DD5349098940F24C42D7
:101D2000914203DA4FF47A714F4A11814E49098981
:101D300040F26C72914209DD4B49098940F6340248
:101D4000914203DA4FF4FA61474A11814649C98941
:101D5000B1F5617F09DD4449C98940F24C429142A5
:101D600003DA4FF47A71404AD1813F49C98940F280
:101D70006C72914209DD3C49C98940F634029142B6
:101D800003DA4FF4FA61384AD18137494989B1F50C
:101D9000617F09DD3449498940F24C42914203DABE
:101DA0004FF47A71304A51812F49498940F2AA5241
:101DB000914209DD2C49498940F20E62914203DAD1
:101DC00040F2DC51284A51812749498940F26C721E
:101DD000914209DD2449498940F63402914203DAEF
:101DE0004FF4FA61204A51811F498989B1F5617F19
:101DF00009DD1D49898940F24C42914203DA4FF4D2
:101E00007A71194A91811849898940F2AA529142FE
:101E100009DD1549898940F20E62914203DA40F2E8
:101E2000DC51114A91811049898940F26C729142CA
:101E300009DD0D49898940F63402914203DA4FF4F5
:101E4000FA61094A91817047AC000020A800002087
:101E50008800002084000020B2000020B000002094
:101E6000B1000020800000202012002010B50446A0
:101E700004480068204020B1024804602046FFF773
:101E8000A5FE10BD143C0140F8B502460B460025E6
:101E9000002400200021D6E0012606FA01F51E6884
:101EA00006EA0504AC4274D11E7906F00306012E41
:101EB00004D01E7906F00306022E13D190684F005D
:101EC0000326BE40B0434F00DE68BE403043906002
:101ED000506801268E40B0431E79C6F300168E402E
:101EE000304350601E7906F00306032E09D0D068F7
:101EF0004F000326BE40B0434F009E68BE403043B3
:101F0000D0601E7906F00306022E13D1CF0802F12D
:101F1000200656F827004E07F70E0F26BE40B043A6
:101F20004F07FF0E1E69BE403043CF0802F1200666
:101F300046F8270010684F000326BE40B0431E79C4
:101F400006F003064F00BE40304310605E6806F4A2
:101F50004036002E76D000BF002600963C4E3668F4
:101F600046F480463A4F3E603E46366806F4804668
:101F7000009600BF00BF374E8F0856F827008E0727
:101F8000370F0F26BE40B043334EB24202D1002677
:101F900024E057E0314EB24201D101261EE0304E1E
:101FA000B24201D1022619E02E4EB24201D10326DF
:101FB00014E02D4EB24201D104260FE02B4EB24266
:101FC00001D105260AE02A4EB24201D1062605E0DB
:101FD000284EB24201D1072600E008268F073F0FA6
:101FE000BE4030431B4E8F0846F82700224E306813
:101FF000A0435E6806F4801606B120431E4E306092
:10200000361D3068A0435E6806F4001606B1204312
:10201000194E361D3060184E361F3068A0435E687A
:1020200006F4003606B12043134E361F3060361FCB
:102030003068A0435E6806F4803606B120430E4E39
:10204000083E3060491C1029FFF426AFF8BD00009F
:1020500044380240083801400000024000040240B9
:1020600000080240000C0240001002400014024030
:1020700000180240001C0240083C0140024613695F
:102080000B400BB1012000E0002070470AB18161D4
:1020900001E00B048361704701480068704700004D
:1020A00044000020034800680349097808440149B6
:1020B00008607047440000204C00002010B50D4817
:1020C000006840F400700B4908600846006840F45E
:1020D000806008600846006840F480700860032053
:1020E00000F0ACF80F2000F007F800F02BF800200B
:1020F00010BD0000003C024070B504460E48007858
:102100004FF47A71B1FBF0F00C490968B1FBF0F5BE
:10211000284600F035FC08B1012070BD102C07D214
:1021200000222146501E00F04BF80548046001E0F3
:102130000120F2E70020F0E74C00002050000020D2
:102140004800002008B500BF00200090114800683A
:1021500040F480400F4908600846006800F4804061
:10216000009000BF00BF00BF00200090081F006863
:1021700040F08050091F08600846006800F0805059
:10218000009000BF00BF00220F21901E00F018F841
:1021900008BD0000443802400146084600280DDB17
:1021A00000BF00BF00F01F0301229A4043099B00BB
:1021B00003F1E023C3F8002100BF00BF00BF704758
:1021C0002DE9F05F80460D461646002703F0AEFA73
:1021D000074639462A46334601F00700C0F1070A90
:1021E000BAF1040F02D94FF0040A01E0C0F1070A66
:1021F000D14600F1040ABAF1070F02D24FF0000AEB
:1022000001E0A0F1030AD4464FF0010A0AFA09FAE4
:10221000AAF1010A0AEA020A0AFA0CFA4FF0010BC3
:102220000BFA0CFBABF1010B0BEA030B4AEA0B04B4
:102230002146404603F082FABDE8F09F00BF00F05F
:102240000702064B19684FF6FF031940044B0B4376
:1022500043EA0221014B196000BF70470CED00E01A
:102260000000FA0570B504460D460CB9012070BD9A
:102270005848006800F00700A84209D255490D707F
:102280000846006800F00700A84201D00120EEE7F0
:10229000207800F0020002281DD1207800F0040010
:1022A000042805D14C48006840F4E0504A490860D1
:1022B000207800F00800082805D14748006840F45D
:1022C0006040454908604448006820F0F000A1687B
:1022D000084341490860207800F00100A8B3606815
:1022E000012807D13C4808380068C0F34040B8B91D
:1022F0000120BCE76068022802D06068032807D18B
:10230000354808380068C0F3406048B90120AEE79E
:10231000314808380068C0F3400008B90120A6E73A
:102320002D48006820F00300616808432A490860CE
:10233000FFF7B2FE064609E0FFF7AEFE801B41F252
:102340008831884202D9032091E707E022480068DB
:1023500000F00C006168B0EB810FEDD11D48006802
:1023600000F00700A84209D91A490D700846006814
:1023700000F00700A84201D0012078E7207800F0A3
:102380000400042807D11448006820F4E050E168F4
:10239000084311490860207800F00800082808D197
:1023A0000D48006820F46040216940EAC1000A49F4
:1023B000086000F03FF808490968C1F30311074AB3
:1023C000515CC8400649086006480068FFF794FE63
:1023D00000204CE7003C024008380240A48E000870
:1023E00050000020480000200148006870470000AD
:1023F0005000002000B5FFF7F7FF04490968C1F35A
:102400008221034A515CC84000BD000008380240E8
:10241000B48E000800B5FFF7E7FF04490968C1F36F
:102420004231034A515CC84000BD000008380240F8
:10243000B48E00082DE9F047002400250026A146AF
:102440002548006800F00C0020B1042805D00828B9
:102450003AD105E0DFF8849039E0DFF8849036E087
:102460001D48001F006800F03F041B48001F006863
:1024700000F4800078B11A481749091F0968C1F3B0
:102480008811A0FB01700146224600233846FDF763
:10249000F7FE05460EE011480F49091F0968C1F310
:1024A0008811A0FB01700146224600233846FDF743
:1024B000E7FE05460848001F0068C0F30140401CC5
:1024C0004600B5FBF6F902E0DFF8109000BF00BF50
:1024D0004846BDE8F0870000083802400024F400B8
:1024E00000127A00F8B504460CB90120F8BD207836
:1024F00000F00100002874D0F948006800F00C00DA
:1025000004280DD0F648006800F00C00082813D10C
:10251000F348001F006800F48000B0F5800F0BD175
:10252000EF4808380068C0F34040002859D0606880
:10253000002856D10120D9E700BF6068B0F5803F80
:1025400008D1E7480838006840F48030E449083989
:1025500008601EE06068B0F5A02F0DD1E048083893
:10256000006840F48020DE490839086008460068A9
:1025700040F4803008600CE0D9480838006820F446
:102580008030D749083908600846006820F4802068
:10259000086000BF606890B1FFF77EFD054606E069
:1025A000FFF77AFD401B642801D903209EE7CC4841
:1025B00008380068C0F340400028F1D011E0FFF770
:1025C0006BFD054606E0FFF767FD401B642801D957
:1025D00003208BE7C24808380068C0F34040002859
:1025E000F1D1207800F0020002285FD1BC480068D9
:1025F00000F00C0058B1BA48006800F00C00082840
:102600001CD1B748001F006800F48000B0B9B4487E
:1026100008380068C0F3400020B1E068012801D00C
:10262000012063E7AE480838006820F0F80021690F
:1026300040EAC100AA490839086037E0E06800B301
:102640000120A8490860FFF727FD054606E0FFF7CF
:1026500023FD401B022801D9032047E7A048083882
:102660000068C0F340000028F1D09D480838006899
:1026700020F0F800216940EAC10099490839086052
:1026800014E0002097490860FFF706FD054606E0C4
:10269000FFF702FD401B022801D9032026E79048DE
:1026A00008380068C0F340000028F1D1207800F01D
:1026B000080008282CD16069A8B101208A49086067
:1026C000FFF7EAFC054606E0FFF7E6FC401B0228A0
:1026D00001D903200AE782486C300068C0F340004B
:1026E0000028F1D014E000207F490860FFF7D4FCF7
:1026F000054606E0FFF7D0FC401B022801D9032065
:10270000F4E677486C300068C0F340000028F1D14F
:10271000207800F00400042870D100277048383079
:10272000006800F0805090B900BF002000906C4815
:102730003830006840F080506949383108600846F8
:10274000006800F08050009000BF00BF012767487C
:10275000006800F48070B0B96448006840F480708C
:1027600062490860FFF798FC054606E0FFF794FC15
:10277000401B022801D90320B8E65C48006800F439
:1027800080700028F2D000BFA068012808D154480A
:102790006830006840F001005149683108601DE070
:1027A000A06805280DD14E486830006840F004004C
:1027B0004B49683108600846006840F00100086035
:1027C0000CE047486830006820F001004449683157
:1027D00008600846006820F00400086000BFA06898
:1027E000A8B1FFF759FC054609E0FFF755FC401B6F
:1027F00041F28831884202D9032077E626E0384842
:1028000068300068C0F340000028EED013E0FFF706
:1028100043FC054608E0FFF73FFC401B41F28831CE
:10282000884201D9032061E62D4868300068C0F372
:1028300040000028EFD1012F07D129483830006827
:1028400020F0805026493831086000BFA069002878
:1028500045D02348006800F00C0008285DD0A0692E
:10286000022845D100201F490866FFF715FC0546E0
:1028700006E0FFF711FC401B022801D9032035E6D2
:10288000174808380068C0F340600028F1D1D4E947
:1028900007010843616A40EA81110122A06AC2EB84
:1028A000500041EA00412C20005D41EA00600C49E3
:1028B000091F086001200B490866FFF7EDFB05467C
:1028C00006E0FFF7E9FB401B022801D903200DE6D3
:1028D000034808380068C0F340600028F1D049E0A0
:1028E0000838024000004742800E47420070004016
:1028F000002021490866FFF7CFFB054606E0FFF7F9
:10290000CBFB401B022801D90320EFE51B480068E0
:10291000C0F340600028F2D12CE0A069012800D16A
:10292000E4E51648001D0668A069012820D006F4D9
:102930008001E06981421BD106F03F01206A81429B
:1029400016D147F6C0703040616AB0EB811F0FD1DD
:1029500006F440310122A06AC2EB5000B1EB004FF7
:1029600006D106F070612C20005DB1EB006F01D044
:102970000120BBE50020B9E50000474200380240D5
:1029800070B504462546681EB0F1807F01D3012052
:102990000FE0681E4FF0E02148610F214FF0FF303B
:1029A00002F0CCFE00204FF0E02188610720086192
:1029B000002070BD7047704730B502460B4600BF1F
:1029C00092F83C00012801D1022030BD012082F89C
:1029D0003C0000BF022082F83D0010684468106887
:1029E000816824F070041868044310684460184D2E
:1029F0001068A8421BD01068B0F1804F17D0154D59
:102A00001068A84213D0144D1068A8420FD0134D7F
:102A10001068A8420BD0124D1068A84207D0114D83
:102A20001068A84203D0104D1068A84205D121F0CB
:102A300080015868014310688160012082F83D00E0
:102A400000BF002082F83C0000BF00BFBDE70000CF
:102A5000000001400004004000080040000C00405D
:102A600000040140004001400018004010B5044639
:102A70000CB9012010BD94F83D0028B9002084F85D
:102A80003C00204600F026F8022084F83D00211D7D
:102A9000206801F0F3FF012084F8460000BF84F8AD
:102AA0003E0001213F2001554020015541200155A4
:102AB00000BF00BF012084F842004320015544209C
:102AC00001554520015500BF012084F83D0000203C
:102AD000D0E7000038B504462068B0F1804F17D128
:102AE00000BF002000900B48006840F00100094939
:102AF00008600846006800F00100009000BF00BFB9
:102B0000002205211C20FFF75BFB1C20FFF744FB84
:102B100038BD000040380240014691F83D000128D0
:102B200001D001207047022081F83D000868C0688C
:102B300040F001000B68D8601A4B086898421BD01F
:102B40000868B0F1804F17D0174B0868984213D02F
:102B5000164B086898420FD0154B086898420BD066
:102B6000144B0868984207D0134B0868984203D06A
:102B7000124B086898420CD10868806800F0070280
:102B8000062A0CD00868006840F001000B68186045
:102B900005E00868006840F001000B68186000203C
:102BA000C0E70000000001400004004000080040B1
:102BB000000C0040000401400040014000180040AB
:102BC0002DE9F04104460D46002700BF94F83C0073
:102BD000012802D10220BDE8F081012084F83C00E8
:102BE00000BF022084F83D002068866826F0770642
:102BF00026F47F46206886602868502833D00CDC95
:102C0000202850D004DC00284BD0102851D149E0B6
:102C1000302849D040284CD139E060282DD0702888
:102C200007D0B0F5805F03D0B0F5005F41D10DE073
:102C300041E0D5E902136A68206801F093FF20683B
:102C4000866846F077062068866034E0D5E902138E
:102C50006A68206801F086FF2068806840F4804040
:102C60002168886027E0EA686968206801F08EFFC3
:102C70005021206801F081FF1DE0EA686968206842
:102C800001F097FF6021206801F077FF13E0EA6808
:102C90006968206801F07AFF4021206801F06DFF2B
:102CA00009E000BF00BF00BF2968206801F065FF90
:102CB00001E0012700BF00BF012084F83D0000BFF4
:102CC000002084F83C0000BF384684E7704770B5A8
:102CD00004462068C5682068066906F002000228DC
:102CE00019D105F00200022815D1401F21680861A2
:102CF000012020772068806900F0030018B1204689
:102D0000FFF7E4FF05E0204600F097F8204600F0CA
:102D100095F80020207706F00400042819D105F06A
:102D20000400042815D1C0432168086102202077DF
:102D30002068806900F4407018B12046FFF7C6FF94
:102D400005E0204600F079F8204600F077F80020F2
:102D5000207706F00800082819D105F00800082897
:102D600015D1C04321680861042020772068C0691C
:102D700000F0030018B12046FFF7A8FF05E0204649
:102D800000F05BF8204600F059F80020207706F0AC
:102D90001000102819D105F01000102815D1C043DB
:102DA00021680861082020772068C06900F440701D
:102DB00018B12046FFF78AFF05E0204600F03DF8F5
:102DC000204600F03BF80020207706F0010048B1D3
:102DD00005F0010030B16FF0010021680861204664
:102DE00000F02EF806F08000802809D105F0800060
:102DF000802805D1C043216808612046FFF7DAFD2D
:102E000006F04000402809D105F04000402805D1D7
:102E1000C04321680861204600F050F806F0200009
:102E2000202809D105F02000202805D1C0432168C1
:102E300008612046FFF7BFFD70BD70477047000076
:102E40000168B1F1804F30D118490968184A116002
:102E500016490968491C154A116016490988491C18
:102E6000144A11801146098864291ADB0021118057
:102E700011494988491C104A5180114649883C290A
:102E80000FDB0021518011468988491C9180114631
:102E900089883C2905DB002191801146C988491C9D
:102EA000D18004490988044A1180704788000020B5
:102EB0008C0000207C0000207400002070477047C8
:102EC000704700002DE9F84F044620680568206827
:102ED000C668206847694FF00009CA4605F00F0927
:102EE000B9F1000F0AD105F0200038B106F020003A
:102EF00020B1204601F0EEFEBDE8F88FB9F1000FD9
:102F00007CD007F0010018B906F49070002875D045
:102F100005F0010030B106F4807018B1606C40F02B
:102F20000100606405F0040030B107F0010018B141
:102F3000606C40F00200606405F0020030B107F000
:102F4000010018B1606C40F00400606405F00800F6
:102F500048B106F0200010B907F0010018B1606C0C
:102F600040F008006064606C002846D005F0200046
:102F700028B106F0200010B1204601F0ABFE206819
:102F80004069C0F3801A606C00F0080010B9BAF113
:102F9000000F2DD0204601F057FE2068406900F058
:102FA0004000402820D100BF00BF2168143151E803
:102FB000001F21F040002168143141E80002002A7E
:102FC000F3D100BFE06B50B17748E16B0865E06B6F
:102FD000FEF7D3FD88B1E06B016D88470DE0204618
:102FE000FFF76EFF09E009E02046FFF769FF04E004
:102FF0002046FFF765FF002060647DE7206B012815
:1030000078D105F01000002874D006F010000028D8
:10301000FAD000BF0020009020680068009020686F
:103020004068009000BF00BF2068406900F0400089
:10303000402860D1E06B006840681FFA80F8B8F162
:10304000000F56D0A08D404553DDA4F82E80E06BD4
:10305000C069B0F5807F43D000BF00BF21680C314C
:1030600051E8001F21F4807021680C3141E8000212
:10307000002AF3D100BF00BF00BF2168143151E81E
:10308000001F21F001002168143141E80002002AEC
:10309000F3D100BF00BF00BF2168143151E8001F09
:1030A00021F040002168143141E80002002AF3D1E8
:1030B00000BF202084F842000020206300BF00BF32
:1030C00021680C3151E8001F21F0100021680C31FB
:1030D00041E80002002AF3D100BFE06BFEF7F7FCE5
:1030E00002206063A08DE28D801A81B22046FFF736
:1030F000E6FE01E742E0A08DE18D401A1FFA80F85C
:10310000E08DD0B3B8F1000F37D000BF00BF216809
:103110000C3151E8001F21F4907021680C3141E816
:103120000002002AF3D100BF00BF00BF21681431A4
:1031300051E8001F21F001002168143141E800022C
:10314000002AF3D100BF202084F842000020206331
:1031500000BF00BF21680C3151E8001F21F01000B2
:1031600021680C3141E80002002AF3D100BF02209F
:10317000606341462046FFF7A2FEBDE605F08000F1
:1031800030B106F0800018B1204601F057FFB3E6D9
:1031900005F0400030B106F0400018B1204601F0C3
:1031A00089FDA9E600BFA7E6354C000810B5044626
:1031B0000CB9012010BDA06900B100E000BF94F877
:1031C000410028B9002084F84000204600F02AF889
:1031D000242084F841002068C06820F40050216851
:1031E000C860204601F0F4FD2068006920F490409A
:1031F000216808612068406920F02A002168486140
:103200002068C06840F400502168C86000206064F5
:10321000202084F8410084F842000020606300BF51
:10322000C8E7000010B586B00446142101A8FDF7D8
:1032300071F88B492068884239D100BF0020009086
:103240008848006840F40020864908600846006805
:1032500000F40020009000BF00BF00BF00200090DD
:1032600080481038006840F004007E49103908603A
:103270000846006800F00400009000BF00BF4FF453
:1032800040600190022002900020039003200490EF
:103290000820059001A97448FEF7F6FD00220521DB
:1032A0003420FEF78DFF3420FEF776FFD6E06F491D
:1032B000206888423BD100BF002000906948001D73
:1032C000006840F010006749091D08600846006862
:1032D00000F01000009000BF00BF00BF0020009071
:1032E00060481038006840F001005E4910390860FD
:1032F0000846006800F00100009000BF00BF4FF4D6
:10330000C0600190022002900020039003200490EE
:103310000720059001A95648FEF7B6FD00220521B9
:103320002520FEF74DFF2520FEF736FF96E0514998
:103330002068884255D100BF0020009049480068AD
:1033400040F40030474908600846006800F4003047
:10335000009000BF00BF00BF00200090414810381F
:10336000006840F001003F491039086008460068D5
:1033700000F00100009000BF00BF00BF00200090DF
:103380000846006840F0080008600846006800F041
:103390000800009000BF00BF0320019002200290AF
:1033A00000200390032004900720059001A93048D5
:1033B000FEF76AFD60200190022002900020039039
:1033C000032004900720059001A92B48FEF75CFD1F
:1033D000002205212620FEF7F3FE2620FEF7DCFE64
:1033E0003CE026492068884238D100BF0020009088
:1033F0001C48006840F480201A49086008460068AC
:1034000000F48020009000BF00BF00BF00200090AB
:1034100014481038006840F0020012491039086062
:103420000846006800F00200009000BF00BF4FF4A3
:10343000406001900220029000200390032004903D
:103440000720059001A90E48FEF71EFD0022052168
:103450002720FEF7B5FE2720FEF79EFE06B010BD22
:10346000004C00404038024000080240001001407B
:103470000000024000440040000C024000480040B0
:103480000004024070B504460D46164694F842000A
:1034900020280BD105B10EB9012070BD002020639A
:1034A00032462946204601F0A9FDF6E70220F4E75E
:1034B00070B50446304884422DD130480088401C05
:1034C0002E4908802E4801782C480088401E2D4A3D
:1034D00011542B480078212816D1002506E02948F0
:1034E000425D294628A002F011F96D1C234800888E
:1034F0008542F4DB012001F03BFEC8212148FCF7A6
:1035000009FF00201D49088000201D490870012284
:103510001948FFF7B7FF2348844207D1224800F03B
:10352000C9F8012221491F48FFF7ACFF2048844217
:103530000DD101221F49FFF7A5FF1E4803F08EFFA2
:1035400002F0A4FE1C480068401C1B4908601B4890
:1035500084420FD11A4B1B4A1B491C4804F0C8F97E
:1035600001221B491548FFF78DFF1A480088401CAF
:103570001849088070BD0000080800207200002073
:1035800070000020E0100020554152542044617426
:1035900061427566665B25645D203D2025630D0AEA
:1035A0000000000050080020341200207E0000209F
:1035B000980800205600002040000020C00700208E
:1035C000EC000020E8000020E4000020E0000020E3
:1035D000D8000020DC0000202DE9F84F04460E46FC
:1035E000174699464FF0000A94F84100202850D120
:1035F00006B117B90120BDE8F88F002060642120D2
:1036000084F84100FEF748FD8246A784E784A0685D
:10361000B0F5805F04D1206910B90025B04602E002
:1036200035464FF000081EE0534600228021204618
:10363000CDF8009001F032FD20B1202084F8410047
:103640000320D8E745B9B8F80000C0F308002168A6
:10365000486008F1020803E02878216848606D1C82
:10366000E08C401EE084E08C0028DDD1534600222F
:1036700040212046CDF8009001F010FD20B120201F
:1036800084F841000320B6E7202084F841000020A0
:10369000B1E70220AFE70000034A0168914202D17E
:1036A0000121024A117070470010014054000020AF
:1036B00000BFFEE710B5044601222A492A48FFF759
:1036C000E1FE28480078802802D1284908700CE0E3
:1036D00024480078062802D12549087005E02148D1
:1036E0000078832801D12349087020480078802879
:1036F00036D11F480078062832D11E48007883282A
:103700002ED11848007845280AD101201A4908729C
:1037100000201649087016490870164908701FE005
:103720000020154908720F4800781449144A12887D
:10373000885413480088401C1149088008460088B6
:1037400009280DD10D4800F01DF884ED000A002075
:103750000B4908800549087005490870054908703B
:1037600010BD00007E000020500800209E000020B8
:103770009F000020A00000203412002040120020F2
:103780009C000020DFED300AB0EE600A00BF4178F7
:103790003039642211FB02F100EE901AF8EEE00AD3
:1037A00070EE800AB0EE600A8178303901EB810159
:1037B000490000EE901AF8EEE00A70EE800AB0EED2
:1037C000600AC178303900EE901AF8EEE00A70EE27
:1037D000800AB0EE600A4179303900EE901AB8EEF6
:1037E000E01ADFED1A1AF0EE400A41EE210AB0EEBF
:1037F000600A8179303900EE901AB8EEE01ADFEDF8
:10380000141AF0EE400A41EE210AB0EE600AC179C6
:10381000303900EE901AB8EEE01ADFED0E1AF0EE35
:10382000400A41EE210AB0EE600A017A303900EE1A
:10383000901AB8EEE01ADFED081AF0EE400A41EEF9
:10384000210AB0EE600A704700000000CDCCCC3DEC
:103850000AD7233C6F12833A17B7D138DFED640AD9
:10386000B0EE600A017E21B9C18841830121017651
:103870007047B0F9081000295ADBC188428B914289
:1038800033DAC18841F6FF721144428B891A00294C
:1038900006DDC18841F6FF721144428B891A05E0AA
:1038A000418BC28841F6FF731A44891A40F2E24202
:1038B000914231DAC18841F6FF721144428B891A74
:1038C00000EE901AF8EEE00A9FED4A1AC0EE811A57
:1038D000DFED490A61EEA00AB0EE600AF3EE030ADA
:1038E00080EE201AB0EE410A16E0C188428B891A98
:1038F00000EE901AF8EEE00A9FED3E1AC0EE811A33
:10390000DFED3D0A61EEA00AB0EE600AF3EE030AB5
:1039100080EE201AB0EE410AB5EEC00AF1EE10FAC0
:1039200061DDD0ED050A70EE800AC0ED050A5AE0AF
:10393000C188428B914234DDC18841F6FF72511A31
:10394000428B1144002906DDC18841F6FF72511AED
:10395000428B114406E0C18841F6FF72511A428B36
:103960001144494240F2E242914231DAC18841F6C3
:10397000FF72511A428B114400EE901AF8EEE00AE1
:103980009FED1C1AC0EE811ADFED1B0A61EEA00A42
:10399000B0EE600AF3EE030A80EE201AB0EE410AA0
:1039A00016E0C188428B891A00EE901AF8EEE00A00
:1039B000DFED101A80EEA11ADFED0F0A61EE200A8A
:1039C000B0EE600AF3EE030A80EE201AB0EE410A70
:1039D000B5EEC00AF1EE10FA05D2D0ED050A70EE90
:1039E000800AC0ED050AC188418300BF40E700009E
:1039F0000000000000F8FF450000B44310B5134874
:103A00001349086003204860002111488160C160AB
:103A10004FF4002101614FF4401141610021017612
:103A200001214176002181760121C17600210177B3
:103A30004177FDF735FE08B1FDF780FAFDF742F852
:103A400002210348FDF7EEFA10BD000000640040BB
:103A50002807002010B5124812490860022048606B
:103A6000002110488160C1604FF4602101614FF472
:103A7000800141610021017601214176002181769A
:103A8000C17601774177FDF70BFE08B1FDF756FAD5
:103A9000FDF770F802210348FDF7C4FA10BD0000DD
:103AA000006800405007002010B50E4A00210E4863
:103AB00002F0AAFE0D4908600D4A00210D4802F0EF
:103AC000A3FE0D4908600D4A00210D4802F09CFE3E
:103AD0000C4908600C4A00210C4802F095FE0C4984
:103AE000086010BD148E00087D49000814000020F5
:103AF000388E0008D93D0008180000205C8E0008B0
:103B00004F4800081C000020808E0008454800082F
:103B10002000002000B587B0142102A8FCF7FAFBB2
:103B200000BF002001905348006840F01000514948
:103B300008600846006800F01000019000BF00BF58
:103B400000BF002001900846006840F004000860B3
:103B50000846006800F00400019000BF00BF00BFED
:103B6000002001900846006840F080000860084688
:103B7000006800F08000019000BF00BF00BF00207F
:103B800001900846006840F001000860084600689F
:103B900000F00100019000BF00BF00BF00200190B5
:103BA0000846006840F0020008600846006800F01F
:103BB0000200019000BF00BF00BF00200190084636
:103BC000006840F0080008600846006800F008003F
:103BD000019000BF00BF00224FF480412648FEF74D
:103BE00055FA0122D1032448FEF750FA00224FF47F
:103BF00080412248FEF74AFA0122D1031F48FEF70E
:103C000045FA402002904FF4881003900020049061
:103C100002A91B48FEF738F94FF4404002900120FA
:103C20000390022004900120059002A91248FEF79B
:103C30002BF94FF4404002900120039002200490A1
:103C40000120059002A90D48FEF71EF9C020029040
:103C5000002003900120049002A90A48FEF714F9FD
:103C6000002202211720FEF7ABFA1720FEF794FA84
:103C700007B000BD3038024000040240000C024092
:103C8000001002400008024000B587B000200390F9
:103C9000049005900690019002904FF080401449E6
:103CA00008605320486000211148816042F2107181
:103CB000C1600021016180218161FEF7D7FE08B15A
:103CC000FDF73CF94FF48050039003A90848FEF734
:103CD00077FF08B1FDF732F900200190029001A9A9
:103CE0000348FEF769FE08B1FDF728F907B000BDEB
:103CF0007807002010B50B480B4908604FF4E130FD
:103D00004860002108488160C16001610C21416167
:103D100000218161C161FFF749FA08B1FDF70EF991
:103D200010BD0000004C0040C007002010B50B483B
:103D30000B4908604FF4E130486000210848816079
:103D4000C16001610C21416100218161C161FFF706
:103D50002DFA08B1FDF7F2F810BD00000010014087
:103D60000808002010B50B480B4908604FF41650A6
:103D70004860002108488160C16001610C214161F7
:103D8000890181610021C161FFF710FA08B1FDF7D7
:103D9000D5F810BD004400405008002010B50B4875
:103DA0000B4908604FF416504860002108488160B4
:103DB000C16001610C21416100218161C161FFF796
:103DC000F5F908B1FDF7BAF810BD00000048004051
:103DD0009808002000BFFEE700BF00F005F80A20A9
:103DE00004F034F8F9E7000010B500247CE004EB9F
:103DF000C400744901EBC0000079032800D175E0CC
:103E000004EBC4006F4951F83000012843D0022868
:103E100004D003285CD0042863D15AE0C4EBC40169
:103E2000694A02EBC10191ED091AF0EE410A04EB77
:103E3000C401644A02EBC101B1F9081001EE101A85
:103E4000B8EEC11AB0EE410AC4EBC4015F4A02EBFE
:103E5000C10000F0C3FB04EBC4015A4A02EBC101EC
:103E6000B1F90E1001EE101AB8EEC11AF0EE410AC7
:103E700004EBC40102EBC101C98801EE101AB8EECF
:103E8000411AB0EE410AC4EBC4014F4A02EBC10033
:103E900000F044FC26E004EBC4014A4A02EBC101F5
:103EA00091ED041AF0EE410A04EBC40102EBC101EA
:103EB000B1F9081001EE101AB8EEC11AB0EE410ABD
:103EC000C4EBC401414A02EBC10000F087FB09E0EA
:103ED00008E0002004EBC4013A4A02EBC1018881EA
:103EE00000E000BF00BF641C082C80DB00BF002086
:103EF00009E000EBC001334A02EBC1010979032953
:103F000000D102E0401C0828F3DB00BF002053E092
:103F100000EBC0012B4A52F8311003294BD000EBC3
:103F2000C00102EBC101097901291AD1C0EBC0011E
:103F3000264A02EBC10191ED090ADFED250A20EEC8
:103F4000200ADFED240A80EE201ABDEEC10A10EE31
:103F5000101A09B200EBC0021A4B03EBC2029181A6
:103F600029E000EBC001174A02EBC10109790229DF
:103F70001AD1C0EBC001154A02EBC10191ED090A4B
:103F8000DFED150A20EE200ADFED130A80EE201A7D
:103F9000BDEEC10A10EE101A09B200EBC002094BC7
:103FA00003EBC202918106E0002100EBC002054B49
:103FB00003EBC2029181401C0828A9DB02F082F8C1
:103FC00010BD0000E0080020600E0020F80B00206B
:103FD0000000804600409C4600401C4610B57048DA
:103FE0008078012806D16E48C078012802D00120CF
:103FF0006C4908706C480068052835D008DC012839
:104000000DD0022821D003282DD004281CD126E071
:10401000072867D009287CD01128F7D1B4E063487D
:1040200090ED000AF7EE000AB4EE600AF1EE10FA25
:1040300005D15F4890ED000A00F028FC04E05C48E0
:1040400090ED000A03F0F4FBA7E0584890ED000A59
:10405000BDEEC00A10EE100A03F042FA9DE01E20E9
:10406000FCF7CCFC99E098E04FF4FA70FDF79AFD6C
:10407000F1EE0C0A9FED4F0A012002F0A7F8F1EED5
:10408000000ABFEE000A022002F0A0F84A480078B9
:10409000401C494908700A20FDF784FD4748007A12
:1040A00068B900224FF400414548FDF7EFFF1120A9
:1040B0004249087201203A49C870424908703F4895
:1040C000407A58B94FF4FA70FDF76CFD0122910364
:1040D0003D48FDF7DBFF0120384948720120314996
:1040E00008705AE0F1EE000ABFEE000A022002F06A
:1040F0006DF8F1EE000AB0EE000A012002F066F859
:104100004FF4FA70FDF74EFD2C48407A012817D184
:1041100000E019E04FF4FA70FDF744FD00224FF47F
:1041200080412948FDF7B2FF4FF4FA70FDF73AFDE0
:10413000012291032248FDF7A9FF00201F49487280
:1041400002202249087028E01C48407A01280CD13E
:104150004FF4FA70FDF726FD00224FF480411A4813
:10416000FDF794FF0020154948721448007A112881
:1041700007D10122D1031248FDF788FF00200F4923
:10418000087200F04DFB08E0012291030C48FDF796
:104190007DFF11200949087200BF00BF10BD00005B
:1041A00051010020F0000020EC000020E000002081
:1041B000E800002033330341500100205212002058
:1041C000000402405C010020000C02405D01002060
:1041D00010B540212948FDF751FF70B928480078F3
:1041E00058B90A20FDF7DEFC40212448FDF746FFC0
:1041F000B0B901202349087012E080211F48FDF763
:104200003DFF68B91E48007850B90A20FDF7CAFC86
:1042100080211A48FDF732FF10B9022019490870B1
:1042200018480078012802D0022824D111E000F0BB
:104230002DF81348007858B90820B7EE001ADFEDC2
:10424000120A9FED110A01F049F801200C4908708B
:1042500011E0FFF7C3FE0A48007858B90820B0EE15
:10426000001ADFED090A9FED080A01F037F8012076
:104270000349087000BF00BF10BD000000080240E5
:104280005E010020870100200000000010B5B54845
:104290008078012806D1B348C078012802D00120D7
:1042A000B1490870B1480068052874D008DC0128BD
:1042B0000DD0022821D0032837D004281CD130E0AB
:1042C000072869D0092868D01128F7D13FE1A8480C
:1042D00090ED000AF7EE000AB4EE600AF1EE10FA73
:1042E00005D1A44890ED000A00F0D0FA04E0A148FE
:1042F00090ED000A03F09CFA32E19F4890ED000A2D
:10430000F7EE000AB4EE600AF1EE10FA08D1984810
:1043100090ED000ABDEEC00A10EE100A01F0CEFFCB
:104320001EE11E20FCF76AFB1AE1924890ED000A9C
:10433000F7EE000AB4EE600AF1EE10FA07D1F0EEE3
:10434000000A9FED8E0A032001F040FF5BE08948E0
:1043500090ED000AF0EE000AB4EE600AF1EE10FAF9
:1043600007D1F0EE000A9FED860A032001F02EFF30
:1043700049E0804890ED000AF0EE080AB4EE600AC9
:10438000F1EE10FA0AD1F0EE000A9FED7E0A03204A
:1043900001F01CFF37E037E074E0A3E0754890EDD2
:1043A000000AF1EE000AB4EE600AF1EE10FA07D14D
:1043B000F0EE000A9FED740A032001F007FF22E0EF
:1043C0006C4890ED000AF1EE040AB4EE600AF1EEDA
:1043D00010FA07D1F0EE000AB6EE080A032001F049
:1043E000F5FE10E0634890ED000AF1EE080AB4EE25
:1043F000600AF1EE10FA06D1F0EE000A9FED630AB2
:10440000032001F0E3FEABE04FF4FA70FDF7CAFBC6
:10441000F1EE0C0AB9EE0C0A022001F0D7FEF0EE24
:10442000080AB0EE000A012001F0D0FE58480078DA
:10443000401C574908700A20FDF7B4FB5548007A24
:1044400068B900224FF400415348FDF71FFE1120C8
:104450005049087201204349C870504908704D48BE
:10446000407A58B94FF4FA70FDF79CFB0122910392
:104470004B48FDF70BFE01204649487201203A499E
:1044800008706DE0F1EE000ABFEE000A022001F0B4
:104490009DFEF1EE000A9FED430A012001F096FE19
:1044A0004FF4FA70FDF77EFB3A48407A012815D1A7
:1044B0004FF4FA70FDF776FB00224FF48041384844
:1044C000FDF7E4FD4FF4FA70FDF76CFB0122910358
:1044D0003148FDF7DBFD00202E49487202203249A9
:1044E00008703DE02B48407A01280CD14FF4FA7057
:1044F000FDF758FB00224FF480412948FDF7C6FD27
:10450000002024494872FCF78FFBF0EE000A9FED73
:10451000270A032001F05AFEF1EE000A9FED230A5C
:10452000022001F053FEF1EE000A9FED200A012067
:1045300001F04CFE1748007A112807D10122D1035F
:104540001548FDF7A3FD00201249087208E001227A
:1045500091031148FDF79AFD11200E49087200BF22
:1045600000BF10BD51010020F0000020EC00002031
:10457000E0000020E8000020E40000209A99193EA5
:104580009A99993E6666E63E9A99193F6666663F35
:104590005001002052120020000402405C01002063
:1045A000000C0240333303415D0100200000000095
:1045B00000BFFEE7B4EEE00AF1EE10FA01DDB0EE66
:1045C000600AB1EE601AB4EEC10AF1EE10FA03D23D
:1045D000B1EE601AB0EE410A7047000000B5F0EE8F
:1045E000401AB0EE602A32EE610A80ED050A90EDC5
:1045F000050AD0ED040A30EE600A80ED060A90ED5F
:10460000011AD0ED052A21EE221AB0EE410A90EDF2
:10461000081AF0EE410AFFF7CDFFD0ED000A90ED49
:10462000061A00EE810AD0ED050A90ED031A70EE2D
:10463000810A90ED041AF0EE002A42EEC10A90EDD4
:10464000021A01EE200AD0ED090A30EE200A80EDB0
:10465000090A90ED090AD0ED0A0AB4EEE00AF1EE7B
:1046600010FA03DD90ED0A0A80ED090A90ED090ABF
:10467000D0ED0A0AF1EE600AB4EEE00AF1EE10FAAB
:1046800005D290ED0A0AB1EE400A80ED090A90EDDC
:10469000040A80ED030A90ED050A80ED040A90ED0E
:1046A000050AB5EEC00AF1EE10FA02DD90ED050A3A
:1046B00003E090ED050AB1EE400AD0ED0D0AB4EE2C
:1046C000E00AF1EE10FA03D29FED020A80ED090A2A
:1046D00000BD00000000000080ED082AC0ED0A1AAD
:1046E00080ED000AC0ED010A80ED021A9FED0A3A42
:1046F00080ED0B3A80ED033A80ED043A80ED093A03
:1047000080ED073A80ED053A80ED063A012180F808
:104710003010C0ED0D2A70470000000000B5F0EE2B
:10472000401AB0EE602A90F8301001290AD132EE1A
:10473000610A80ED040A32EE610A80ED030A00216D
:1047400080F8301032EE610A80ED050A90ED070A1C
:10475000D0ED050A30EE200A80ED070A90ED050A3B
:10476000D0ED040A30EE600A80ED060A90ED011AE1
:10477000D0ED072A21EE221AB0EE410A90ED081A78
:10478000F0EE410AFFF716FFD0ED000A90ED051A92
:1047900000EE810AD0ED020A90ED061A00EE810AC1
:1047A00080ED090A90ED090AD0ED0A0AB4EEE00A9C
:1047B000F1EE10FA03DD90ED0A0A80ED090A90EDA2
:1047C000090AD0ED0A0AF1EE600AB4EEE00AF1EE51
:1047D00010FA05D290ED0A0AB1EE400A80ED090AFE
:1047E00090ED050A80ED040A90ED050AB5EEC00AC9
:1047F000F1EE10FA02DD90ED050A03E090ED050AF6
:10480000B1EE400AD0ED0D0AB4EEE00AF1EE10FA76
:1048100003D29FED020A80ED090A00BD00000000EE
:104820000021064880F8AD1180F86511044880F831
:104830003C1000200249087770470000E008002083
:104840007412002000BF012003F000FBFBE700BF53
:10485000FFF7BEFC0A2003F0F9FAF9E710B50748A4
:104860008078074948700748007888704FF0FF3318
:1048700004220548FEF7B0FE10BD000051010020E3
:10488000AF010020850100209808002010B52DED13
:10489000028BB0EE408A00224FF480413148FDF790
:1048A000F5FB31480078022807D1F0EE080A9FEDA9
:1048B0002F0A032001F08AFC0AE02B480078012827
:1048C00006D1F0EE080A9FED2A0A032001F07EFCD3
:1048D0004FF4FA70FDF766F9B0EE480A254800F08B
:1048E00067FDB1EE480A2348483000F061FD4FF4FF
:1048F000FA70FDF757F9B0EE480A1E48903800F0FC
:1049000057FDB1EE480A1B48483800F051FD4FF4FE
:10491000FA70FDF747F99FED180A164800F048FDB8
:104920009FED150A1348483000F042FD9FED120A32
:104930001048903800F03CFD9FED0F0A0D484838B4
:1049400000F036FDF0EE080A9FED0B0A032001F09F
:104950003DFC012291030348FDF798FBBDEC028B5F
:1049600010BD000000040240870100209A99593FC1
:104970009A9959BF700900200000000000BF00BFD5
:10498000FCF76EF802F082FE012001F0E7FEF7E787
:1049900010B5FDF787FB03F0E7FF012801D003F016
:1049A00031FC10BD00B593B0302107A8FBF7B2FC75
:1049B000142102A8FBF7AEFC00BF002001902448A0
:1049C000006840F08050224908600846006800F006
:1049D0008050019000BF00BF00BF002001901D4823
:1049E000006840F480401B4908600846006800F4F5
:1049F0008040019000BF00BF012007900004089094
:104A000002200D9041050E9108210F914FF4A871DD
:104A10001091022111910421129107A8FDF762FD66
:104A200008B1FCF78BFA0F200290022003900020BF
:104A300004904FF4A05005904FF48050069005214B
:104A400002A8FDF70FFC08B1FCF778FA13B000BD1F
:104A500040380240007000400348006840F4700095
:104A6000014908607047000088ED00E010B5024879
:104A7000FEF72DF910BD00007807002010B5026880
:104A80002D4B98420ED0B0F1804F0BD02B4B98425B
:104A900008D02B4B984205D02A4B984202D02A4B83
:104AA000984203D122F070024B681A43224B98427D
:104AB00020D0B0F1804F1DD0204B98421AD0204B0F
:104AC000984217D01F4B984214D01F4B984211D0D8
:104AD0001E4B98420ED01E4B98420BD01D4B984255
:104AE00008D01D4B984205D01C4B984202D01C4B5D
:104AF000984203D122F44072CB681A4322F080031B
:104B00004C6943EA040202608B68C3620B688362EB
:104B1000094B984202D00C4B984201D10B690363B8
:104B200001234361036903F001031BB1036923F00F
:104B30000103036110BD00000000014000040040BB
:104B400000080040000C004000040140004001400B
:104B5000004401400048014000180040001C004093
:104B60000020004030B50C46816821F47F4142EAC4
:104B7000032525432943816030BD0A46816821F021
:104B8000700142F0070319438160704730B50B464E
:104B90001446026A056A25F001050562816921F063
:104BA000F00141EA041122F00A021A438161026213
:104BB00030BD30B50B461446026A056A25F0100573
:104BC0000562816921F4704141EA043122F0A002BA
:104BD00042EA03128161026230BD000010B5012279
:104BE00003490448FEF74EFC0248FEF76BF910BD7E
:104BF000D8000020C007002010E000BF0B4A126858
:104C000002F08002002AF9D00278084B1B1D1A60BE
:104C1000401C074A1268521C054B1A60044A12686D
:104C20008A42EADB0022024B1A607047004C0040C7
:104C30001801002070B50546AC6B0020E085E084CB
:104C40002046FEF73DF970BD00BF00BF02680C3280
:104C500052E8002F22F4907102680C3242E80013EF
:104C6000002BF3D100BF00BF00BF0268143252E82E
:104C7000002F22F001010268143242E80013002BD9
:104C8000F3D100BF016B01290ED100BF00BF026844
:104C90000C3252E8002F22F0100102680C3242E878
:104CA0000013002BF3D100BF202180F84210002117
:104CB0000163704710B504462068C06820F04000CA
:104CC0002168C860202084F841002046FEF7E4FCFB
:104CD000002010BDF8B5044694F84200222875D192
:104CE000A068B0F5805F0CD1206950B90025A66A94
:104CF00020684068C0F308003080A06A801CA06271
:104D000015E0A56A0026A068B0F5805F03D0A06812
:104D100028B9206918B920684068287004E0206824
:104D2000406800F07F002870A06A401CA062E08DFF
:104D3000401E80B2E085002846D12068C06820F07F
:104D400020002168C8602068C06820F48070216855
:104D5000C8602068406920F0010021684861202077
:104D600084F8420000206063206B012826D10020D7
:104D7000206300BF00BF21680C3151E8001F21F003
:104D8000100021680C3141E80002002AF3D100BF75
:104D90002068006800F0100010280AD100BF002031
:104DA000009020680068009020684068009000BF74
:104DB00000BFA18D2046FEF782F802E02046FEF7F4
:104DC00077FB0020F8BD01E00020FBE70220F9E7B7
:104DD0002DE9F84F04462068006920F44050E1684E
:104DE0000843216808612169A06808436169084394
:104DF000E169084300902068C06849F20C6188436B
:104E0000009908432168C8602068406920F4407018
:104E1000A16908432168486176492068884203D027
:104E200075492068884203D1FDF7F4FA814602E013
:104E3000FDF7E0FA8146E069B0F5004F6CD1022041
:104E40006168A0FB015003461920A9FB00700146D0
:104E50002A463846FBF714FA6421B0FBF1F04FEA1A
:104E6000001A02206168A0FB01510B461920A9FB22
:104E700000712A463846FBF703FA83460220616830
:104E8000A0FB015003461920A9FB00712A463846B1
:104E9000FBF7F6F96421B0FBF1F000EBC00101EB88
:104EA0000010ABEB8000322101EBC0006421B0FBAD
:104EB000F1F000F0F8000AEB400A02206168A0FB64
:104EC000015003461920A9FB007001462A463846C6
:104ED000FBF7D6F9834602206168A0FB0150034628
:104EE0001920A9FB00712A463846FBF7C9F964214D
:104EF000B0FBF1F000EBC00101EB0010ABEB800068
:104F0000322101EBC0006421B0FBF1F000F007009A
:104F10005044216888606AE004206168A0FB015069
:104F200003461920A9FB007001462A463846FBF7C4
:104F3000A7F9824604206168A0FB015003461920AE
:104F4000A9FB007001462A463846FBF799F964210F
:104F5000B0FBF1F000EBC00101EB0010AAEB800008
:104F6000322101EB00106421B0FBF1F000F0F00AF7
:104F700004206168A0FB017003461920A9FB0051C1
:104F80003A462846FBF77CF96421B0FBF1F00AEBC6
:104F9000001A04206168A0FB01510B461920A9FBEF
:104FA00000712A463846FBF76BF983460420616896
:104FB000A0FB015003461920A9FB007001462A46B8
:104FC0003846FBF75DF96421B0FBF1F000EBC0015E
:104FD00001EB0010ABEB8000322101EB00106421EB
:104FE000B0FBF1F000F00F00504421688860BDE88C
:104FF000F88F0000001001400014014010B5034676
:1050000099629A85DA8500205864222083F842004C
:10501000186928B11868C06840F480701C68E060A6
:105020001868406940F001001C6860611868C06839
:1050300040F020001C68E060002010BD014691F89F
:105040004100212828D18868B0F5805F0BD108691C
:1050500048B90A6A1088C0F308000B685860086AEB
:10506000801C086205E00B6A581C086218780B68FF
:105070005860C88C401E80B2C88458B90868C0689F
:1050800020F080000B68D8600868C06840F04000DD
:105090000B68D860002070470220FCE72DE9F84338
:1050A00004460D4617469846089E31E0701C70B3C2
:1050B000FCF7F2FFA0EB0800B04200D816B90320BD
:1050C000BDE8F8832068C06800F00400F8B1802DC6
:1050D0001ED0402D1CD020680068C0F3C000B0B1C5
:1050E00000BF0020009020680068009020684068A1
:1050F000009000BF00BF2046FFF7A6FD08206064B7
:1051000000BF002084F8400000BF0120D8E7FFE77F
:10511000206800682840A84201D1012000E000205A
:10512000B842C3D00020CBE710B50248FDF7CAFE55
:1051300010BD00000808002010B5012203490448F2
:10514000FEF7A0F90248FDF7BDFE10BD7E0000206D
:105150005008002010B5012203490448FEF792F9D7
:105160000248FDF7AFFE10BD560000209808002051
:1051700070B52DED028B0546FBF7E4FE10EE104AEC
:105180002046FBF75AFA41EC180B53EC182B4CA0B5
:1051900000F0BCFA012D09D14C480078502806D106
:1051A0004A484078312802D14948046084E04748A1
:1051B0000078492806D145484078312802D1444832
:1051C000446079E041480078442806D13F4840785F
:1051D000312802D13E4884606EE03C480078502877
:1051E00006D13A484078322802D13948846363E0D6
:1051F00036480078492806D134484078322802D110
:105200003348C46358E031480078442806D12F4819
:105210004078322802D12E4804644DE02B480078B3
:10522000502806D129484078332802D128480467FD
:1052300042E026480078492806D12448407833289F
:1052400002D12348446737E020480078442806D13B
:105250001E484078332802D11D4884672CE01B4843
:10526000007853280AD119484078702806D1174889
:105270008078652802D1174804611DE01348007842
:1052800073280AD111484078502806D10F488078F9
:10529000652802D10F4884650EE00C480078732819
:1052A0000AD10A484078702806D1084880784528F5
:1052B00002D10848C0F8A040BDEC028B70BD0000D0
:1052C000646174613D252E32660D0A00E0100020F5
:1052D000F80B0020E008002000BFFEE770B52DEDC0
:1052E000048B86B0B0EE408AF0EE608AB0EE419A50
:1052F0000646002518216846FBF70CF8264880ED85
:10530000008A2648C0ED008A254880ED009A25488D
:105310000660002404E02448005D0DF80400641CCD
:10532000022CF8DB11258DF80250002416E01A48F3
:10533000015DE01C0DF800101848015DE01D0DF83E
:1053400000101748015D04F10B000DF8001015481E
:10535000015D04F10F000DF80010641C042CE6DB65
:10536000E81C81B2684600F075FF0146A81C0DF8E4
:1053700000100E480178E81C0DF800100B48417829
:10538000281D0DF8001016216846FFF735FC06B001
:10539000BDEC048B70BD0000080100200C01002052
:1053A0001001002014010020D9000020BC8E00084C
:1053B000F0EE400A01210160C0ED040A9FED010AF0
:1053C000704700000000000010B52DED0C8B044666
:1053D00094ED0E0AF7EE000AB4EEE00AF1EE10FAD0
:1053E0001FDC94ED0E0AB5EEC00AF1EE10FA18D3E8
:1053F00094ED0F0AF7EE000AB4EEE00AF1EE10FAAF
:105400000FDC94ED0F0AB5EEC00AF1EE10FA08D3E6
:1054100094ED0C0AD4ED0B0AB4EEE00AF1EE10FAAA
:1054200006D29FEDB10A84ED040ABDEC0C8B10BDD1
:1054300094ED090AD4ED0A0AB4EE600AF1EE10FA0E
:1054400008D194ED0B0AD4ED0C0A20EE200A84ED6D
:10545000040AEAE794ED0A0AD4ED090A30EE600A7C
:10546000B5EEC00AF1EE10FA06DD94ED0A0AD4EDAD
:10547000090A30EE600A07E094ED0A0AD4ED090A41
:1054800030EE600AB1EE400AB0EE408A94ED0E0AAA
:1054900020EE089A94ED0F0A60EE089A38EE490A59
:1054A00030EE69AA94ED0C0A20EE000AD4ED0B0A46
:1054B00094ED0B1A00EEC10AF0EE000A69EE200A24
:1054C000C0EE20AA94ED0D0A20EE000AD4ED0C0ADD
:1054D00094ED0C1A00EEC10AF0EE000A69EEA00A83
:1054E00080EE20DA94ED0A0AD4ED090AB4EEE00A5F
:1054F000F1EE10FA08DD94ED050AD4ED090AB4EED8
:10550000E00AF1EE10FA11D394ED0A0AD4ED090A7B
:10551000B4EEE00AF1EE10FA0DD294ED050AD4EDE6
:10552000090AB4EEE00AF1EE10FA04DD94ED0B0A7C
:1055300084ED040AA5E094ED0A0AD4ED090AB4EE5C
:10554000E00AF1EE10FA08DD94ED050AD4ED0A0A3E
:10555000B4EEE00AF1EE10FA11DC94ED0A0AD4ED93
:10556000090AB4EEE00AF1EE10FA0DD294ED050A44
:10557000D4ED0A0AB4EEE00AF1EE10FA04D294ED8A
:105580000D0A84ED040A7CE094ED050AD4ED090AC5
:1055900030EE600AB5EEC00AF1EE10FA06DD94EDC9
:1055A000050AD4ED090A30EE600A07E094ED050A19
:1055B000D4ED090A30EE600AB1EE400AF0EE408AFE
:1055C000F4EEC98AF1EE10FA20D294ED0B0A20EE27
:1055D000000AF0EE000A6AEEA00A00EEA80A10EE39
:1055E000101A0846FBF729F841EC1C0BB0EE4C0AE8
:1055F000F0EE6C0A00F0B9F8B0EE40BAF0EE60BA26
:1056000051EC1B0BFBF75CF820613AE039EE0A0A1B
:10561000B4EEE80AF1EE10FA04DD94ED0C0A84ED24
:10562000040A2EE0D4ED0D0A20EEA01AF0EE000AD6
:105630006DEE201A78EE680AF5EEC00AF1EE10FA67
:1056400002DD78EE680A03E078EE680AF1EE600A9F
:10565000B0EE410A01EEE00A10EE100AFAF7EDFF93
:1056600041EC1C0BB0EE4C0AF0EE6C0A00F07DF839
:10567000B0EE40BAF0EE60BA51EC1B0BFBF720F82D
:10568000206194ED0A0AD4ED090AB4EEE00AF1EEC5
:1056900010FA05D294ED040AB1EE400A84ED040A32
:1056A00094ED050AD4ED0A0A30EE600AB0EEC00AA5
:1056B000F1EE040AB4EEE00AF1EE10FA01D2012193
:1056C000216494ED050AD4ED0A0A30EE600AB0EECA
:1056D000C00AF1EE040AB4EEE00AF1EE10FA01DDC0
:1056E0000021216400BFA0E60000000080ED090A4F
:1056F000C0ED0A0A80ED0B1AC0ED0C1A80ED0D2AE0
:10570000C0ED0E2A80ED0F3A704700000FB4054B34
:1057100010B503A9044A029800F03CF910BC5DF8EA
:1057200014FB0000356200083802002002480068BF
:10573000C0F30220704700000CED00E010B5002817
:1057400004DB0A07130E054A135406E00A07140E79
:10575000034A00F00F031B1FD45410BD00E400E007
:1057600018ED00E0EFF30580704700B52DED048BD8
:10577000B0EE409AF0EE609A83B051EC190BFBF753
:1057800096F841EC180B18EE100A18EE901A8DEDF1
:10579000008B002818BF0120084320F00040C0F112
:1057A0007F6000F1E040C00F14D019EE101A19EE1E
:1057B000900A8DED009B002918BF0121084320F0BD
:1057C0000040C0F17F6000F1E040C00F04BF012045
:1057D00000F018F8B0EE480A03B0F0EE680ABDEC2D
:1057E000048B00BD02E008C8121F08C1002AFAD1CC
:1057F00070477047002001E001C1121F002AFBD151
:105800007047000001490860704700003C0200201A
:105810002DE9FF5F82B00021DDE90430020DDDF8E3
:1058200040B0034318D044F61050A2F2FF32424376
:105830001514119801281FD0A5EB0B00401C5FEA3E
:10584000000A4FF000064E4FDFF83891B046504640
:1058500015D5CAF1000413E0119801244AA30128C8
:1058600001D16FEA0B010298119AC0E90031C0E939
:10587000024206B0BDE8F09FCBF10000DFE704462E
:105880000021404A491842EB0450CDE9001012E0D3
:10589000E00707D032463B4640464946FAF7ECFD62
:1058A0008046894632463B4610461946FAF7E4FDE3
:1058B00006460F466410002CEAD1DDE90401DDE95B
:1058C0000023BAF1000F06DAFAF7D6FD42464B463E
:1058D000FAF7D2FD05E0FAF741FE42464B46FAF7E9
:1058E0003DFE04460E460022284BFAF7D1FE03D8AF
:1058F0004FF0FF30014607E00022254B204631469D
:10590000FAF713FDFBF724F8102409E0002C0ADB5A
:105910000A220023FAF7B4FC039B30321A55641EA6
:1059200050EA0102F2D1641C039AC4F11103144439
:10593000119A012A03D0012208430DD10AE008433D
:1059400004D000204FF0110B119072E7A3EB0B0570
:105950006D1E0DE05B4504DD4FF0000205F1010511
:1059600004E003DA4FF00002A5F10105002AECD0B3
:1059700002981199C0E90231C0E9004579E70000B9
:10598000000014400000F03F300000000000F04331
:105990000000E03F2DE9FF4F95B09B468946064643
:1059A00000250FE2252877D100242746F84A012157
:1059B000059400E0044316F8013F203B01FA03F090
:1059C0001042F7D130782A2811D06FF02F033078A9
:1059D000A0F13002092A16D8059A44F0020402EB1D
:1059E000820203EB42021044761C0590EFE759F85F
:1059F000042B0592002A03DA504244F40054059027
:105A000044F00204761C30782E2816D116F8010FC7
:105A100044F004042A280DD06FF02F023078A0F152
:105A20003003092B09D807EB870302EB4303C718A0
:105A3000761CF3E759F8047B761C30786C280FD07D
:105A400006DC4C2817D068280DD06A2814D104E051
:105A5000742810D07A280FD10DE044F400140AE025
:105A600044F4801401E044F440147278824202D17C
:105A700004F58014761C761C307866280BD013DC75
:105A8000582877D009DC002875D04528F6D046285C
:105A9000F4D047281AD19DE118E0632835D0642856
:105AA00079D0652812D195E1702873D008DC672879
:105AB000F1D069286FD06E280DD06F2806D1B5E0DF
:105AC00073282CD0752875D0782874D05A46179929
:105AD00090476D1C75E1C4F30250022809D00328D9
